{
  "contractName": "Todo",
  "abi": [
    {
      "anonymous": false,
      "inputs": [
        {
          "indexed": false,
          "internalType": "string",
          "name": "title",
          "type": "string"
        },
        {
          "indexed": false,
          "internalType": "bool",
          "name": "isCompleted",
          "type": "bool"
        }
      ],
      "name": "TaskCreated",
      "type": "event"
    },
    {
      "anonymous": false,
      "inputs": [
        {
          "components": [
            {
              "internalType": "string",
              "name": "title",
              "type": "string"
            },
            {
              "internalType": "uint256",
              "name": "date",
              "type": "uint256"
            },
            {
              "internalType": "bool",
              "name": "isCompleted",
              "type": "bool"
            }
          ],
          "indexed": false,
          "internalType": "struct Todo.Task",
          "name": "task",
          "type": "tuple"
        }
      ],
      "name": "TaskDeleted",
      "type": "event"
    },
    {
      "anonymous": false,
      "inputs": [
        {
          "components": [
            {
              "internalType": "string",
              "name": "title",
              "type": "string"
            },
            {
              "internalType": "uint256",
              "name": "date",
              "type": "uint256"
            },
            {
              "internalType": "bool",
              "name": "isCompleted",
              "type": "bool"
            }
          ],
          "indexed": false,
          "internalType": "struct Todo.Task",
          "name": "task",
          "type": "tuple"
        },
        {
          "indexed": false,
          "internalType": "bool",
          "name": "completed",
          "type": "bool"
        }
      ],
      "name": "TaskUpdated",
      "type": "event"
    },
    {
      "constant": false,
      "inputs": [
        {
          "internalType": "string",
          "name": "_task",
          "type": "string"
        }
      ],
      "name": "addTask",
      "outputs": [
        {
          "components": [
            {
              "internalType": "string",
              "name": "title",
              "type": "string"
            },
            {
              "internalType": "uint256",
              "name": "date",
              "type": "uint256"
            },
            {
              "internalType": "bool",
              "name": "isCompleted",
              "type": "bool"
            }
          ],
          "internalType": "struct Todo.Task[]",
          "name": "",
          "type": "tuple[]"
        }
      ],
      "payable": false,
      "stateMutability": "nonpayable",
      "type": "function"
    },
    {
      "constant": true,
      "inputs": [],
      "name": "getTasks",
      "outputs": [
        {
          "components": [
            {
              "internalType": "string",
              "name": "title",
              "type": "string"
            },
            {
              "internalType": "uint256",
              "name": "date",
              "type": "uint256"
            },
            {
              "internalType": "bool",
              "name": "isCompleted",
              "type": "bool"
            }
          ],
          "internalType": "struct Todo.Task[]",
          "name": "",
          "type": "tuple[]"
        }
      ],
      "payable": false,
      "stateMutability": "view",
      "type": "function"
    },
    {
      "constant": false,
      "inputs": [
        {
          "internalType": "uint256",
          "name": "_taskIndex",
          "type": "uint256"
        },
        {
          "internalType": "bool",
          "name": "_status",
          "type": "bool"
        }
      ],
      "name": "updateTask",
      "outputs": [],
      "payable": false,
      "stateMutability": "nonpayable",
      "type": "function"
    },
    {
      "constant": false,
      "inputs": [
        {
          "internalType": "uint256",
          "name": "_taskIndex",
          "type": "uint256"
        }
      ],
      "name": "removeTask",
      "outputs": [],
      "payable": false,
      "stateMutability": "nonpayable",
      "type": "function"
    },
    {
      "constant": true,
      "inputs": [],
      "name": "getTotalTasks",
      "outputs": [
        {
          "internalType": "uint256",
          "name": "",
          "type": "uint256"
        }
      ],
      "payable": false,
      "stateMutability": "view",
      "type": "function"
    }
  ],
  "bytecode": "0x608060405234801561001057600080fd5b5061105e806100206000396000f3fe608060405234801561001057600080fd5b50600436106100575760003560e01c806304a87e381461005c5780633c93b9051461007a5780635e1bf4a11461009857806367238562146100b4578063c3084117146100e4575b600080fd5b610064610100565b6040516100719190610e12565b60405180910390f35b610082610265565b60405161008f9190610e96565b60405180910390f35b6100b260048036036100ad9190810190610b65565b6102b1565b005b6100ce60048036036100c99190810190610af7565b6103bc565b6040516100db9190610e12565b60405180910390f35b6100fe60048036036100f99190810190610b3c565b610678565b005b60606000803373ffffffffffffffffffffffffffffffffffffffff1673ffffffffffffffffffffffffffffffffffffffff168152602001908152602001600020600001805480602002602001604051908101604052809291908181526020016000905b8282101561025c5783829060005260206000209060030201604051806060016040529081600082018054600181600116156101000203166002900480601f01602080910402602001604051908101604052809291908181526020018280546001816001161561010002031660029004801561021f5780601f106101f45761010080835404028352916020019161021f565b820191906000526020600020905b81548152906001019060200180831161020257829003601f168201915b50505050508152602001600182015481526020016002820160009054906101000a900460ff16151515158152505081526020019060010190610163565b50505050905090565b60008060003373ffffffffffffffffffffffffffffffffffffffff1673ffffffffffffffffffffffffffffffffffffffff16815260200190815260200160002060000180549050905090565b806000803373ffffffffffffffffffffffffffffffffffffffff1673ffffffffffffffffffffffffffffffffffffffff16815260200190815260200160002060000183815481106102fe57fe5b906000526020600020906003020160020160006101000a81548160ff0219169083151502179055507fe900c18afaf5a95f3617ec507a149997bed6e45d36d926cda8764e29fbfabbee6000803373ffffffffffffffffffffffffffffffffffffffff1673ffffffffffffffffffffffffffffffffffffffff168152602001908152602001600020600001838154811061039357fe5b9060005260206000209060030201826040516103b0929190610e66565b60405180910390a15050565b60606000803373ffffffffffffffffffffffffffffffffffffffff1673ffffffffffffffffffffffffffffffffffffffff168152602001908152602001600020600001604051806060016040528085858080601f016020809104026020016040519081016040528093929190818152602001838380828437600081840152601f19601f820116905080830192505050505050508152602001428152602001600015158152509080600181540180825580915050906001820390600052602060002090600302016000909192909190915060008201518160000190805190602001906104a892919061090f565b506020820151816001015560408201518160020160006101000a81548160ff0219169083151502179055505050507f7244e4a3935407016a588c9e4e489cab5bc4dfdbecaeb759027a74d97ac3de578383600060405161050a93929190610e34565b60405180910390a16000803373ffffffffffffffffffffffffffffffffffffffff1673ffffffffffffffffffffffffffffffffffffffff168152602001908152602001600020600001805480602002602001604051908101604052809291908181526020016000905b8282101561066c5783829060005260206000209060030201604051806060016040529081600082018054600181600116156101000203166002900480601f01602080910402602001604051908101604052809291908181526020018280546001816001161561010002031660029004801561062f5780601f106106045761010080835404028352916020019161062f565b820191906000526020600020905b81548152906001019060200180831161061257829003601f168201915b50505050508152602001600182015481526020016002820160009054906101000a900460ff16151515158152505081526020019060010190610573565b50505050905092915050565b6000803373ffffffffffffffffffffffffffffffffffffffff1673ffffffffffffffffffffffffffffffffffffffff16815260200190815260200160002060000181815481106106c457fe5b9060005260206000209060030201600080820160006106e3919061098f565b60018201600090556002820160006101000a81549060ff0219169055505060008190505b60016000803373ffffffffffffffffffffffffffffffffffffffff1673ffffffffffffffffffffffffffffffffffffffff168152602001908152602001600020600001805490500381101561087c576000803373ffffffffffffffffffffffffffffffffffffffff1673ffffffffffffffffffffffffffffffffffffffff16815260200190815260200160002060000160018201815481106107a557fe5b90600052602060002090600302016000803373ffffffffffffffffffffffffffffffffffffffff1673ffffffffffffffffffffffffffffffffffffffff16815260200190815260200160002060000182815481106107ff57fe5b9060005260206000209060030201600082018160000190805460018160011615610100020316600290046108349291906109d7565b50600182015481600101556002820160009054906101000a900460ff168160020160006101000a81548160ff0219169083151502179055509050508080600101915050610707565b506000803373ffffffffffffffffffffffffffffffffffffffff1673ffffffffffffffffffffffffffffffffffffffff1681526020019081526020016000206000018054806108c757fe5b6001900381819060005260206000209060030201600080820160006108ec919061098f565b60018201600090556002820160006101000a81549060ff02191690555050905550565b828054600181600116156101000203166002900490600052602060002090601f016020900481019282601f1061095057805160ff191683800117855561097e565b8280016001018555821561097e579182015b8281111561097d578251825591602001919060010190610962565b5b50905061098b9190610a5e565b5090565b50805460018160011615610100020316600290046000825580601f106109b557506109d4565b601f0160209004906000526020600020908101906109d39190610a5e565b5b50565b828054600181600116156101000203166002900490600052602060002090601f016020900481019282601f10610a105780548555610a4d565b82800160010185558215610a4d57600052602060002091601f016020900482015b82811115610a4c578254825591600101919060010190610a31565b5b509050610a5a9190610a5e565b5090565b610a8091905b80821115610a7c576000816000905550600101610a64565b5090565b90565b600081359050610a9281610fed565b92915050565b60008083601f840112610aaa57600080fd5b8235905067ffffffffffffffff811115610ac357600080fd5b602083019150836001820283011115610adb57600080fd5b9250929050565b600081359050610af181611004565b92915050565b60008060208385031215610b0a57600080fd5b600083013567ffffffffffffffff811115610b2457600080fd5b610b3085828601610a98565b92509250509250929050565b600060208284031215610b4e57600080fd5b6000610b5c84828501610ae2565b91505092915050565b60008060408385031215610b7857600080fd5b6000610b8685828601610ae2565b9250506020610b9785828601610a83565b9150509250929050565b6000610bad8383610d3d565b905092915050565b6000610bc082610ed6565b610bca8185610ef9565b935083602082028501610bdc85610eb1565b8060005b85811015610c185784840389528151610bf98582610ba1565b9450610c0483610eec565b925060208a01995050600181019050610be0565b50829750879550505050505092915050565b610c3381610f43565b82525050565b610c4281610f43565b82525050565b6000610c548385610f1b565b9350610c61838584610f59565b610c6a83610fcf565b840190509392505050565b6000610c8082610ee1565b610c8a8185610f0a565b9350610c9a818560208601610f68565b610ca381610fcf565b840191505092915050565b600081546001811660008114610ccb5760018114610cf157610d35565b607f6002830416610cdc8187610f0a565b955060ff198316865260208601935050610d35565b60028204610cff8187610f0a565b9550610d0a85610ec1565b60005b82811015610d2c57815481890152600182019150602081019050610d0d565b80880195505050505b505092915050565b60006060830160008301518482036000860152610d5a8282610c75565b9150506020830151610d6f6020860182610df4565b506040830151610d826040860182610c2a565b508091505092915050565b60006060830160008084018583036000870152610daa8382610cae565b92505060018401549050610dbd81610fb5565b610dca6020870182610df4565b5060028401549050610ddb81610f9b565b610de86040870182610c2a565b50819250505092915050565b610dfd81610f4f565b82525050565b610e0c81610f4f565b82525050565b60006020820190508181036000830152610e2c8184610bb5565b905092915050565b60006040820190508181036000830152610e4f818587610c48565b9050610e5e6020830184610c39565b949350505050565b60006040820190508181036000830152610e808185610d8d565b9050610e8f6020830184610c39565b9392505050565b6000602082019050610eab6000830184610e03565b92915050565b6000819050602082019050919050565b60008190508160005260206000209050919050565b600081519050919050565b600081519050919050565b6000602082019050919050565b600082825260208201905092915050565b600082825260208201905092915050565b600082825260208201905092915050565b600060ff82169050919050565b6000819050919050565b60008115159050919050565b6000819050919050565b82818337600083830152505050565b60005b83811015610f86578082015181840152602081019050610f6b565b83811115610f95576000848401525b50505050565b6000610fae610fa983610fe0565b610f2c565b9050919050565b6000610fc8610fc383610fe0565b610f39565b9050919050565b6000601f19601f8301169050919050565b60008160001c9050919050565b610ff681610f43565b811461100157600080fd5b50565b61100d81610f4f565b811461101857600080fd5b5056fea365627a7a7231582049ced6e49535193509976d96ab0bad618b1d243e3c3d96e93b9ae3b25e74dcd06c6578706572696d656e74616cf564736f6c63430005100040",
  "source": "pragma solidity ^0.5.11;\npragma experimental ABIEncoderV2;\n\ncontract Todo {\n    struct Task {\n        string title;\n        uint date;\n        bool isCompleted;\n    }\n    \n    struct Tasks {\n        Task[] tasks;\n    }\n\n    mapping (address => Tasks) private TaskAuther;\n    \n    event TaskCreated(\n        string title,\n        bool isCompleted\n     );\n\n    event TaskUpdated(\n        Task task,\n        bool completed\n    );\n    \n    event TaskDeleted(\n        Task task\n    );\n\n    function addTask(string calldata _task) external returns(Task[] memory) {\n        TaskAuther[msg.sender].tasks.push(Task({\n            title: _task, \n            date: now, \n            isCompleted: false\n        }));\n\n        emit TaskCreated(_task, false);\n        return TaskAuther[msg.sender].tasks;\n    }\n\n    function getTasks() public view returns(Task[] memory) {\n        // require(TaskAuther[msg.sender].tasks.length == 0, \"No list found\");\n        return TaskAuther[msg.sender].tasks;\n    }\n\n    function updateTask(uint _taskIndex, bool _status) external {\n        // require(!TaskAuther[msg.sender].tasks[_taskIndex - 1].isCompleted, \"Todo was completed\");\n\n        TaskAuther[msg.sender].tasks[_taskIndex].isCompleted = _status;\n        emit TaskUpdated(TaskAuther[msg.sender].tasks[_taskIndex], _status);\n\n    }\n\n    function removeTask(uint _taskIndex) external {\n        delete TaskAuther[msg.sender].tasks[_taskIndex];\n        for(uint i = _taskIndex; i < TaskAuther[msg.sender].tasks.length - 1; i++){\n            TaskAuther[msg.sender].tasks[i] = TaskAuther[msg.sender].tasks[i + 1];\n        }\n        TaskAuther[msg.sender].tasks.pop();\n    }\n\n    function getTotalTasks() external view returns(uint) {\n        return TaskAuther[msg.sender].tasks.length;\n    }\n}",
  "sourcePath": "/Users/himanshupurohit/MyWork/blockchain/todo/contracts/Todo.sol",
  "compiler": {
    "name": "solc",
    "version": "0.5.16+commit.9c3226ce.Emscripten.clang"
  },
  "schemaVersion": "3.4.2",
  "updatedAt": "2021-08-12T18:53:07.689Z",
  "networkType": "ethereum",
  "devdoc": {
    "methods": {}
  },
  "userdoc": {
    "methods": {}
  }
}